{
  "_format": "hh-sol-artifact-1",
  "contractName": "CertificateRegistry",
  "sourceName": "contracts/CertificateRegistry.sol",
  "abi": [
    {
      "anonymous": false,
      "inputs": [
        {
          "indexed": true,
          "internalType": "bytes32",
          "name": "certId",
          "type": "bytes32"
        },
        {
          "indexed": true,
          "internalType": "address",
          "name": "issuer",
          "type": "address"
        },
        {
          "indexed": false,
          "internalType": "string",
          "name": "ipfsCid",
          "type": "string"
        },
        {
          "indexed": false,
          "internalType": "uint256",
          "name": "issuedAt",
          "type": "uint256"
        }
      ],
      "name": "CertificateIssued",
      "type": "event"
    },
    {
      "anonymous": false,
      "inputs": [
        {
          "indexed": true,
          "internalType": "bytes32",
          "name": "certId",
          "type": "bytes32"
        },
        {
          "indexed": true,
          "internalType": "address",
          "name": "issuer",
          "type": "address"
        },
        {
          "indexed": false,
          "internalType": "uint256",
          "name": "revokedAt",
          "type": "uint256"
        }
      ],
      "name": "CertificateRevoked",
      "type": "event"
    },
    {
      "inputs": [
        {
          "internalType": "bytes32",
          "name": "",
          "type": "bytes32"
        }
      ],
      "name": "certificates",
      "outputs": [
        {
          "internalType": "address",
          "name": "issuer",
          "type": "address"
        },
        {
          "internalType": "string",
          "name": "ipfsCid",
          "type": "string"
        },
        {
          "internalType": "uint256",
          "name": "issuedAt",
          "type": "uint256"
        },
        {
          "internalType": "bool",
          "name": "valid",
          "type": "bool"
        }
      ],
      "stateMutability": "view",
      "type": "function"
    },
    {
      "inputs": [
        {
          "internalType": "bytes32",
          "name": "certId",
          "type": "bytes32"
        }
      ],
      "name": "getCertificate",
      "outputs": [
        {
          "internalType": "address",
          "name": "issuer",
          "type": "address"
        },
        {
          "internalType": "string",
          "name": "ipfsCid",
          "type": "string"
        },
        {
          "internalType": "uint256",
          "name": "issuedAt",
          "type": "uint256"
        },
        {
          "internalType": "bool",
          "name": "valid",
          "type": "bool"
        }
      ],
      "stateMutability": "view",
      "type": "function"
    },
    {
      "inputs": [
        {
          "internalType": "bytes32",
          "name": "certId",
          "type": "bytes32"
        },
        {
          "internalType": "string",
          "name": "ipfsCid",
          "type": "string"
        }
      ],
      "name": "issueCertificate",
      "outputs": [],
      "stateMutability": "nonpayable",
      "type": "function"
    },
    {
      "inputs": [
        {
          "internalType": "bytes32",
          "name": "certId",
          "type": "bytes32"
        }
      ],
      "name": "revokeCertificate",
      "outputs": [],
      "stateMutability": "nonpayable",
      "type": "function"
    }
  ],
  "bytecode": "0x608060405234801561001057600080fd5b50610e64806100206000396000f3fe608060405234801561001057600080fd5b506004361061004c5760003560e01c8063742f068814610051578063baf75ec714610084578063c6cbc52a146100a0578063f333fe08146100bc575b600080fd5b61006b60048036038101906100669190610711565b6100ef565b60405161007b9493929190610843565b60405180910390f35b61009e600480360381019061009991906108f4565b6101d4565b005b6100ba60048036038101906100b59190610711565b6103ea565b005b6100d660048036038101906100d19190610711565b610578565b6040516100e69493929190610843565b60405180910390f35b60006020528060005260406000206000915090508060000160009054906101000a900473ffffffffffffffffffffffffffffffffffffffff169080600101805461013890610983565b80601f016020809104026020016040519081016040528092919081815260200182805461016490610983565b80156101b15780601f10610186576101008083540402835291602001916101b1565b820191906000526020600020905b81548152906001019060200180831161019457829003601f168201915b5050505050908060020154908060030160009054906101000a900460ff16905084565b600073ffffffffffffffffffffffffffffffffffffffff1660008085815260200190815260200160002060000160009054906101000a900473ffffffffffffffffffffffffffffffffffffffff1673ffffffffffffffffffffffffffffffffffffffff1614610278576040517f08c379a000000000000000000000000000000000000000000000000000000000815260040161026f90610a00565b60405180910390fd5b60405180608001604052803373ffffffffffffffffffffffffffffffffffffffff16815260200183838080601f016020809104026020016040519081016040528093929190818152602001838380828437600081840152601f19601f8201169050808301925050505050505081526020014281526020016001151581525060008085815260200190815260200160002060008201518160000160006101000a81548173ffffffffffffffffffffffffffffffffffffffff021916908373ffffffffffffffffffffffffffffffffffffffff16021790555060208201518160010190816103649190610bfb565b506040820151816002015560608201518160030160006101000a81548160ff0219169083151502179055509050503373ffffffffffffffffffffffffffffffffffffffff16837f270157be81be690a745a1a2f93a76e8fa6ab0efc08abee1041bf72464ca854a18484426040516103dd93929190610d09565b60405180910390a3505050565b803373ffffffffffffffffffffffffffffffffffffffff1660008083815260200190815260200160002060000160009054906101000a900473ffffffffffffffffffffffffffffffffffffffff1673ffffffffffffffffffffffffffffffffffffffff161461048e576040517f08c379a000000000000000000000000000000000000000000000000000000000815260040161048590610d87565b60405180910390fd5b6001151560008084815260200190815260200160002060030160009054906101000a900460ff161515146104f7576040517f08c379a00000000000000000000000000000000000000000000000000000000081526004016104ee90610df3565b60405180910390fd5b600080600084815260200190815260200160002060030160006101000a81548160ff0219169083151502179055503373ffffffffffffffffffffffffffffffffffffffff16827f85fe6dd2dfc4757558754564c7ff020182ec3c918257c2ff3a217a63791ec24f4260405161056c9190610e13565b60405180910390a35050565b6000606060008060008060008781526020019081526020016000206040518060800160405290816000820160009054906101000a900473ffffffffffffffffffffffffffffffffffffffff1673ffffffffffffffffffffffffffffffffffffffff1673ffffffffffffffffffffffffffffffffffffffff16815260200160018201805461060490610983565b80601f016020809104026020016040519081016040528092919081815260200182805461063090610983565b801561067d5780601f106106525761010080835404028352916020019161067d565b820191906000526020600020905b81548152906001019060200180831161066057829003601f168201915b50505050508152602001600282015481526020016003820160009054906101000a900460ff161515151581525050905080600001518160200151826040015183606001519450945094509450509193509193565b600080fd5b600080fd5b6000819050919050565b6106ee816106db565b81146106f957600080fd5b50565b60008135905061070b816106e5565b92915050565b600060208284031215610727576107266106d1565b5b6000610735848285016106fc565b91505092915050565b600073ffffffffffffffffffffffffffffffffffffffff82169050919050565b60006107698261073e565b9050919050565b6107798161075e565b82525050565b600081519050919050565b600082825260208201905092915050565b60005b838110156107b957808201518184015260208101905061079e565b60008484015250505050565b6000601f19601f8301169050919050565b60006107e18261077f565b6107eb818561078a565b93506107fb81856020860161079b565b610804816107c5565b840191505092915050565b6000819050919050565b6108228161080f565b82525050565b60008115159050919050565b61083d81610828565b82525050565b60006080820190506108586000830187610770565b818103602083015261086a81866107d6565b90506108796040830185610819565b6108866060830184610834565b95945050505050565b600080fd5b600080fd5b600080fd5b60008083601f8401126108b4576108b361088f565b5b8235905067ffffffffffffffff8111156108d1576108d0610894565b5b6020830191508360018202830111156108ed576108ec610899565b5b9250929050565b60008060006040848603121561090d5761090c6106d1565b5b600061091b868287016106fc565b935050602084013567ffffffffffffffff81111561093c5761093b6106d6565b5b6109488682870161089e565b92509250509250925092565b7f4e487b7100000000000000000000000000000000000000000000000000000000600052602260045260246000fd5b6000600282049050600182168061099b57607f821691505b6020821081036109ae576109ad610954565b5b50919050565b7f416c726561647920697373756564000000000000000000000000000000000000600082015250565b60006109ea600e8361078a565b91506109f5826109b4565b602082019050919050565b60006020820190508181036000830152610a19816109dd565b9050919050565b7f4e487b7100000000000000000000000000000000000000000000000000000000600052604160045260246000fd5b60008190508160005260206000209050919050565b60006020601f8301049050919050565b600082821b905092915050565b600060088302610ab17fffffffffffffffffffffffffffffffffffffffffffffffffffffffffffffffff82610a74565b610abb8683610a74565b95508019841693508086168417925050509392505050565b6000819050919050565b6000610af8610af3610aee8461080f565b610ad3565b61080f565b9050919050565b6000819050919050565b610b1283610add565b610b26610b1e82610aff565b848454610a81565b825550505050565b600090565b610b3b610b2e565b610b46818484610b09565b505050565b5b81811015610b6a57610b5f600082610b33565b600181019050610b4c565b5050565b601f821115610baf57610b8081610a4f565b610b8984610a64565b81016020851015610b98578190505b610bac610ba485610a64565b830182610b4b565b50505b505050565b600082821c905092915050565b6000610bd260001984600802610bb4565b1980831691505092915050565b6000610beb8383610bc1565b9150826002028217905092915050565b610c048261077f565b67ffffffffffffffff811115610c1d57610c1c610a20565b5b610c278254610983565b610c32828285610b6e565b600060209050601f831160018114610c655760008415610c53578287015190505b610c5d8582610bdf565b865550610cc5565b601f198416610c7386610a4f565b60005b82811015610c9b57848901518255600182019150602085019450602081019050610c76565b86831015610cb85784890151610cb4601f891682610bc1565b8355505b6001600288020188555050505b505050505050565b82818337600083830152505050565b6000610ce8838561078a565b9350610cf5838584610ccd565b610cfe836107c5565b840190509392505050565b60006040820190508181036000830152610d24818587610cdc565b9050610d336020830184610819565b949350505050565b7f4e6f742069737375657200000000000000000000000000000000000000000000600082015250565b6000610d71600a8361078a565b9150610d7c82610d3b565b602082019050919050565b60006020820190508181036000830152610da081610d64565b9050919050565b7f416c726561647920696e76616c69640000000000000000000000000000000000600082015250565b6000610ddd600f8361078a565b9150610de882610da7565b602082019050919050565b60006020820190508181036000830152610e0c81610dd0565b9050919050565b6000602082019050610e286000830184610819565b9291505056fea264697066735822122024fdcbacf5570b66e22d0a3452cd49f71a207316d3886045d08468eacd79ab1b64736f6c63430008130033",
  "linkReferences": {},
  "deployedLinkReferences": {}
}